{
  "contractName": "AccountManagement",
  "abi": [
    {
      "constant": true,
      "inputs": [],
      "name": "name",
      "outputs": [
        {
          "name": "",
          "type": "string"
        }
      ],
      "payable": false,
      "stateMutability": "view",
      "type": "function",
      "signature": "0x06fdde03"
    },
    {
      "constant": true,
      "inputs": [],
      "name": "total",
      "outputs": [
        {
          "name": "",
          "type": "uint256"
        }
      ],
      "payable": false,
      "stateMutability": "view",
      "type": "function",
      "signature": "0x2ddbd13a"
    },
    {
      "constant": true,
      "inputs": [
        {
          "name": "",
          "type": "uint256"
        }
      ],
      "name": "accounts",
      "outputs": [
        {
          "name": "",
          "type": "string"
        }
      ],
      "payable": false,
      "stateMutability": "view",
      "type": "function",
      "signature": "0xf2a40db8"
    },
    {
      "inputs": [],
      "payable": false,
      "stateMutability": "nonpayable",
      "type": "constructor",
      "signature": "constructor"
    },
    {
      "anonymous": false,
      "inputs": [
        {
          "indexed": false,
          "name": "name",
          "type": "string"
        },
        {
          "indexed": false,
          "name": "id",
          "type": "uint256"
        }
      ],
      "name": "AccountCreated",
      "type": "event",
      "signature": "0xa20158249c914ae953824c74ba6d0ce14bbf7f8683940d1da2d2965133eda588"
    },
    {
      "constant": false,
      "inputs": [
        {
          "name": "_name",
          "type": "string"
        },
        {
          "name": "_id",
          "type": "uint256"
        }
      ],
      "name": "createAccount",
      "outputs": [],
      "payable": false,
      "stateMutability": "nonpayable",
      "type": "function",
      "signature": "0x6586ace6"
    },
    {
      "constant": true,
      "inputs": [
        {
          "name": "_name",
          "type": "string"
        },
        {
          "name": "_id",
          "type": "uint256"
        }
      ],
      "name": "checkLogin",
      "outputs": [
        {
          "name": "",
          "type": "bool"
        }
      ],
      "payable": false,
      "stateMutability": "view",
      "type": "function",
      "signature": "0x367415a4"
    }
  ],
  "bytecode": "0x6080604052600060015534801561001557600080fd5b506040805190810160405280600481526020017f55414d530000000000000000000000000000000000000000000000000000000081525060009080519060200190610061929190610067565b5061010c565b828054600181600116156101000203166002900490600052602060002090601f016020900481019282601f106100a857805160ff19168380011785556100d6565b828001600101855582156100d6579182015b828111156100d55782518255916020019190600101906100ba565b5b5090506100e391906100e7565b5090565b61010991905b808211156101055760008160009055506001016100ed565b5090565b90565b6108fa8061011b6000396000f3fe60806040526004361061006d576000357c0100000000000000000000000000000000000000000000000000000000900463ffffffff16806306fdde03146100725780632ddbd13a14610102578063367415a41461012d5780636586ace614610217578063f2a40db8146102e9575b600080fd5b34801561007e57600080fd5b5061008761039d565b6040518080602001828103825283818151815260200191508051906020019080838360005b838110156100c75780820151818401526020810190506100ac565b50505050905090810190601f1680156100f45780820380516001836020036101000a031916815260200191505b509250505060405180910390f35b34801561010e57600080fd5b5061011761043b565b6040518082815260200191505060405180910390f35b34801561013957600080fd5b506101fd6004803603604081101561015057600080fd5b810190808035906020019064010000000081111561016d57600080fd5b82018360208201111561017f57600080fd5b803590602001918460018302840111640100000000831117156101a157600080fd5b91908080601f016020809104026020016040519081016040528093929190818152602001838380828437600081840152601f19601f82011690508083019250505050505050919291929080359060200190929190505050610441565b604051808215151515815260200191505060405180910390f35b34801561022357600080fd5b506102e76004803603604081101561023a57600080fd5b810190808035906020019064010000000081111561025757600080fd5b82018360208201111561026957600080fd5b8035906020019184600183028401116401000000008311171561028b57600080fd5b91908080601f016020809104026020016040519081016040528093929190818152602001838380828437600081840152601f19601f8201169050808301925050505050505091929192908035906020019092919050505061055b565b005b3480156102f557600080fd5b506103226004803603602081101561030c57600080fd5b8101908080359060200190929190505050610779565b6040518080602001828103825283818151815260200191508051906020019080838360005b83811015610362578082015181840152602081019050610347565b50505050905090810190601f16801561038f5780820380516001836020036101000a031916815260200191505b509250505060405180910390f35b60008054600181600116156101000203166002900480601f0160208091040260200160405190810160405280929190818152602001828054600181600116156101000203166002900480156104335780601f1061040857610100808354040283529160200191610433565b820191906000526020600020905b81548152906001019060200180831161041657829003601f168201915b505050505081565b60015481565b600080835111151561045257600080fd5b6002600083815260200190815260200160002060405160200180828054600181600116156101000203166002900480156104c35780601f106104a15761010080835404028352918201916104c3565b820191906000526020600020905b8154815290600101906020018083116104af575b505091505060405160208183030381529060405280519060200120836040516020018082805190602001908083835b60208310151561051757805182526020820191506020810190506020830392506104f2565b6001836020036101000a0380198251168184511680821785525050505050509050019150506040516020818303038152906040528051906020012014905092915050565b6000825111151561056b57600080fd5b60006002600083815260200190815260200160002060405160200180828054600181600116156101000203166002900480156105de5780601f106105bc5761010080835404028352918201916105de565b820191906000526020600020905b8154815290600101906020018083116105ca575b505091505060405160208183030381529060405251141515610668576040517f08c379a000000000000000000000000000000000000000000000000000000000815260040180806020018281038252601e8152602001807f4163636f756e7420616c72656164792065786973747320666f7220796f75000081525060200191505060405180910390fd5b8160026000838152602001908152602001600020908051906020019061068f929190610829565b506001600081548092919060010191905055507fa20158249c914ae953824c74ba6d0ce14bbf7f8683940d1da2d2965133eda588600260008381526020019081526020016000208260405180806020018381526020018281038252848181546001816001161561010002031660029004815260200191508054600181600116156101000203166002900480156107665780601f1061073b57610100808354040283529160200191610766565b820191906000526020600020905b81548152906001019060200180831161074957829003601f168201915b5050935050505060405180910390a15050565b60026020528060005260406000206000915090508054600181600116156101000203166002900480601f0160208091040260200160405190810160405280929190818152602001828054600181600116156101000203166002900480156108215780601f106107f657610100808354040283529160200191610821565b820191906000526020600020905b81548152906001019060200180831161080457829003601f168201915b505050505081565b828054600181600116156101000203166002900490600052602060002090601f016020900481019282601f1061086a57805160ff1916838001178555610898565b82800160010185558215610898579182015b8281111561089757825182559160200191906001019061087c565b5b5090506108a591906108a9565b5090565b6108cb91905b808211156108c75760008160009055506001016108af565b5090565b9056fea165627a7a7230582051ad9f3abf4c11c717459e9664e86978b77ef39dcda69b7e73057e72b00a3db30029",
  "source": "pragma solidity ^0.5.0;\r\n\r\ncontract AccountManagement {\r\n    string public name;\r\n    uint public total=0;\r\n    // string public hashval;\r\n    mapping(uint => string) public accounts;\r\n    \r\n\r\n    constructor() public {\r\n        name=\"UAMS\";\r\n    }\r\n        event AccountCreated(\r\n        string name,\r\n        uint id\r\n    );\r\n\r\n        function createAccount(string memory _name,uint _id) public\r\n    {\r\n            require(bytes(_name).length >0);\r\n            require(abi.encodePacked(accounts[_id]).length == 0,\"Account already exists for you\");\r\n      \r\n            accounts[_id]=_name;\r\n            total++;\r\n            emit AccountCreated(accounts[_id],_id);\r\n           \r\n    }\r\n\r\n         function checkLogin (string memory _name,uint _id) public view returns(bool)\r\n    {\r\n        require(bytes(_name).length >0);\r\n        return (keccak256(abi.encodePacked((_name))) == keccak256(abi.encodePacked((accounts[_id]))));\r\n    }\r\n\r\n}",
  "sourcePath": "C:/Users/godsk/Desktop/fcpf/frontend/uams/src/contracts/uamp.sol",
  "compiler": {
    "name": "solc",
    "version": "0.5.0+commit.1d4f565a.Emscripten.clang"
  },
  "schemaVersion": "3.0.2",
  "updatedAt": "2021-09-03T06:26:42.157Z",
  "devdoc": {
    "methods": {}
  },
  "userdoc": {
    "methods": {}
  }
}